:1015C300112233445500000000003030310036361C
:1015D3000000000000000000000000000000000008
:0215E300000006
:0E163000050D01010101010508101010101038
:041529007F707E173A
:10152D00E4FDFCC3ED9FEC9E50070DBD00010C804A
:10153D00F2E4FCFDC3ED9FEC9E50070DBD00010CC8
:02154D0080F22A
:01154F002279
:0B16CB00EFD394004004001F80F622C3
:091312007D007BFF7E00120E4EEF
:10131B007F641216CBC2B6D2B7C2B47B007A007907
:10132B000D754D057F301213B61213AB7D017F2166
:10133B001216667D017F221216667D027F2312161E
:10134B0066E4FD7F251216667D207F311216667DC1
:0D135B00077F261216667D0F7F20021666A2
:1012B8007F641216CBC2B6D2B7C2B4D2B37B007A5F
:1012C800007908754D057F301213B67A00790D1232
:1012D80013AF7D017F211216667D017F22121666EB
:1012E8007D1A7F241216667D027F23121666E4FD9E
:1012F8007F251216667D207F311216667D077F26B0
:0A1308001216667D0E7F20021666A5
:1015FF00E4FEEF3392B5EF25E0FFD2B4A2B2E433AD
:08160F004207C2B40EBE08EA56
:0116170022B0
:0C16BE00C2B71215FFE4FF1215FFD2B7EF
:0116CA0022FD
:06166000C2B67D0F7F20E1
:10166600C2B71215FFAC07AF051215FFD2B7AF040C
:011676002251
:0614CF008B4A8A4B894C98
:1014D500C2B71215FFAD07E4FCECC3954D5017E4F8
:1014E500FF1215FFAB4AAA4BA94C8C82758300EFFE
:0A14F500120EBA0C80E3D2B7AF0567
:0114FF0022CA
:0B13AB007A0079087B00754D057F2A51
:0613B6008B4A8A4B894CB2
:1013BC00C2B71215FFAD07E4FCECC3954D5018AB4A
:1013CC004A054CE54CAA4B7002054B14F9120E74ED
:0B13DC00FF1215FF0C80E2D2B7AF0536
:0113E70022E3
:0A16D600121660D2B67F820216CB16
:0A16E000121660D2B67FC80216CBC6
:06149B007B007A007927B6
:0614A1008B3D8A3E893FED
:1014A700E4FB7F071216BE8F20300612C2B6AB3D93
:1014B700AA3EA93F754D207F611214CF7B01AD2055
:0714C7007F27121666AF0338
:0114CE0022FB
:101550008B3D8A3E893FC2B61213ABAB3DAA3EA972
:101560003F754D207FA01213B67D0E7F20121666A8
:07157000D2B67F0A0216CB80
:1013E800E4F594F593F592F591F596F595F5B2F542
:1013F800B1F5B4F5B3F5CAF5C9F5CCF5CBF5E2F519
:10140800E1E5A2543FF5A27598DA758E40E4F589B6
:0D141800758BE0758DFED28ED2ACD2AF2266
:1011F200E4F53DF53E783F7C00FD7BFF7A1579C32F
:10120200FE7F05120E4E78447C007D007BFF7A152E
:1012120079C87E007F05120E4E7B007A00793F75F9
:101222004D057F301213B67B007A007944754D0567
:101232007F101214CFE544B41117E545B42212E52C
:1012420046B4330DE547B44408E548B455037F017D
:03125200227F02F6
:011255002276
:100F430078227C007A1579CD7F041213121213E8EC
:100F5300121677D2AF1210501215771211F2BF0189
:100F630006C2C3C2C08011BF0206C2C2C2C2800889
:0B0F7300C2C3C2C2C2C2C2C012152914
:100F7E0078297C007A1579D17F141213121216D6A5
:100F8E0012149BE4FBFDFF1213687B01E4FD7F123C
:100F9E001213687B02E4FD7F241213687B03E4FDC9
:100FAE007F361213687B04E4FD7F481213687B05BD
:100FBE00E4FD7F5A1213687B06E4FD7F6C12136802
:100FCE007B0D7D03E4FF1213687B0E7D037F1212EF
:100FDE0013687B007A0079227D037F24121425E5A5
:100FEE005B6401701FF55BB2CD1212B81216E07B76
:100FFE00007A0079291215507DFF7F27121666128E
:10100E001529D2CD30B303020F7E7B0F7D067F24D0
:10101E001213687B107D067F3612136812149B7FA5
:10102E00587E0212152DE4F52674272526F8E6FFC4
:10103E0012168A0526E526C3940240ED12152902E2
:02104E000F7E13
:03002300021618AA
:10161800C0D0309809C298859980A29A92A2309930
:0816280004C299C208D0D032BF
:10168A002008FDEF30D004D29B8002C29BD208F51D
:02169A00992293
:10159E008B578A588959AB57AA58A959120E74609D
:1015AE00130559E5597002055814F9120E74FF12FD
:0515BE00168A80E22204
:1000A6000000000000000000002F00000000070014
:1000B600070000147F147F1400242A7F2A1200628E
:1000C600640813230036495522500000050300003A
:1000D60000001C224100000041221C000014083EC2
:1000E60008140008083E0808000000A06000000888
:1000F60008080808000060600000002010080402DC
:10010600003E5149453E0000427F40000042615199
:100116004946002141454B31001814127F10002733
:1001260045454539003C4A494930000171090503F6
:1001360000364949493600064949291E0000363627
:10014600000000005636000000081422410000148A
:100156001414141400004122140800020151090667
:1001660000324959513E007C1211127C007F4949E8
:100176004936003E41414122007F4141221C007F19
:1001860049494941007F09090901003E4149497A27
:10019600007F0808087F0000417F410000204041A1
:1001A6003F01007F08142241007F40404040007F0D
:1001B600020C027F007F0408107F003E4141413E51
:1001C600007F09090906003E4151215E007F091999
:1001D60029460046494949310001017F0101003F96
:1001E6004040403F001F2040201F003F4038403F16
:1001F600006314081463000708700807006151497A
:10020600454300007F41410000552A552A5500000C
:1002160041417F000004020102040040404040408A
:10022600000001020400002054545478007F484422
:10023600443800384444442000384444487F003859
:100246005454541800087E0901020018A4A4A47C82
:10025600007F080404780000447D4000004080844C
:100266007D00007F102844000000417F4000007C94
:1002760004180478007C08040478003844444438A0
:1002860000FC242424180018242418FC007C0804EC
:10029600040800485454542000043F444020003CC5
:1002A6004040207C001C2040201C003C4030403C4C
:1002B600004428102844001CA0A0A07C00446454DC
:1002C6004C44141414141414000000000000000020
:1002D6000000000000000000000000F80000000020
:1002E600000000333000000000100C06100C060061
:1002F600000000000000000040C07840C0784000C8
:10030600043F04043F040400007088FC0830000029
:10031600001820FF211E0000F008F000E018000081
:1003260000211C031E211E0000F00888700000003A
:100336001E2123241927211010160E00000000008C
:100346000000000000000000000000E018040200A9
:10035600000000071820400000020418E00000001A
:100366000040201807000000404080F08040400018
:100376000202010F01020200000000F0000000006E
:100386000101011F01010100000000000000000042
:1003960080B07000000000000000000000000000B7
:1003A6000001010101010101000000000000000040
:1003B60000303000000000000000000080601804DB
:1003C600006018060100000000E010080810E000B8
:1003D600000F102020100F00001010F80000000081
:1003E6000020203F202000000070080808887000C8
:1003F6000030282422213000003008888848300048
:100406000018202020110E000000C02010F8000067
:1004160000070424243F240000F808888808080000
:100426000019212020110E0000E010888818000015
:10043600000F112020110E0000380808C8380800E7
:100446000000003F00000000007088080888700067
:10045600001C222121221C0000E010080810E000E8
:100466000000312222110F00000000C0C000000071
:100476000000003030000000000000800000000096
:10048600000080600000000000008040201008008E
:100496000001020408102000404040404040400057
:1004A6000404040404040400000810204080000032
:1004B6000020100804020100007048080808F00037
:1004C6000000003036010000C030C828E810E00007
:1004D6000718272423140B000000C038E000000092
:1004E600203C23020227382008F8888888700000FC
:1004F600203F202020110E00C030080808083800D0
:10050600071820202010080008F808080810E00046
:10051600203F202020100F0008F88888E8081000E7
:10052600203F20202320180008F88888E8081000BB
:10053600203F200003000000C030080808380000F3
:1005460007182020221E020008F808000008F808F4
:10055600203F210101213F20000808F8080800007B
:100566000020203F2020000000000808F8080800AE
:10057600C08080807F00000008F888C02818080026
:10058600203F20012638200008F80800000000005F
:10059600203F20202020300008F8F800F8F8080056
:1005A600203F003F003F200008F830C00008F80850
:1005B600203F200007183F00E01008080810E00060
:1005C6000F10202020100F0008F808080808F00077
:1005D600203F210101010000E01008080810E0009A
:1005E6000F18242438504F0008F88888888870002F
:1005F600203F2000030C30200070880808083800CF
:100606000038202121221C00180808F808081800C4
:100616000000203F2000000008F808000008F80845
:10062600001F202020201F000878880000C83808F6
:10063600000007380E010000F80800F80008F8006E
:10064600033C0700073C0300081868808068180808
:1006560020302C03032C30200838C800C838080086
:100666000000203F2000000010080808C8380800D5
:100676002038262120201800000000FE0202020079
:100686000000007F40404000000C30C00000000029
:10069600000000010638C00000020202FE00000051
:1006A600004040407F0000000000040202020400F7
:1006B6000000000000000000000000000000000034
:1006C600808080808080808000020204000000001C
:1006D6000000000000000000000080808080000014
:1006E6000019242222223F2008F800808000000002
:1006F600003F112020110E000000008080800000C5
:10070600000E112020201100000000808088F800D3
:10071600000E112020103F20000080808080000005
:10072600001F222222221300008080F08888881869
:100736000020203F20200000000080808080800074
:10074600006B94949493600008F800808080000009
:10075600203F210000203F200080989800000000E4
:100766000020203F20200000000000809898000014
:1007760000C08080807F000008F800008080800034
:10078600203F24022D302000000808F80000000059
:100796000020203F20200000808080808080800014
:1007A600203F20003F20003F8080008080800000A6
:1007B600203F210000203F20000080808080000034
:1007C600001F202020201F00808000808000000065
:1007D60080FFA12020110E00000000808080800094
:1007E600000E112020A0FF80808080008080800085
:1007F60020203F21200001000000808080808000B2
:100806000033242424241900008080E08080000026
:100816000000001F20200000808000000080800073
:10082600001F202020103F208080800000808080D4
:1008360000010E3008060100808000800080808064
:100846000F300C030C300F00008080008080800089
:100856000020312E0E3120008080800000808080B4
:1008660080818E7018060100008080808080800064
:100876000021302C2221300000000000807C020282
:1008860000000000003F404000000000FF000000A4
:1008960000000000FF0000000002027C8000000053
:1008A6000040403F0000000000060101020204046F
:1008B600000000000000000000F80000FF402018C3
:1008C6000F18680808080800000000000000000073
:1008D6000000000000000000001F0000FF00007F75
:1008E60021213F21217F00000000000000000000C0
:1008F600000000000000000020202020202020FF13
:100906002020202020202000000000000000000001
:10091600000000000000000080804020100C030052
:10092600030C102040808000000000000000000042
:100936000000000000000000403C10FF10102010D6
:100946008F7808F808F8000000000000000000009A
:100956000000000000000000020602FF0101044240
:1009660021184681403F0000000000000000000002
:10097600000000000000000002FE9292FE0200103D
:100986001116F01413100000000000000000000013
:100996000000000000000000101F0808FF0481414D
:1009A600310D030D31418100000000000000000000
:1009B6000000000000000000100C0484146405060A
:1009C600F404040404140C000000000000000000FD
:1009D6000000000000000000048484444724140C36
:1009E600070C1424448404000000000000000000EA
:1009F600000000000000000002FA8282FE80402013
:100A0600504C434C50204000000000000000000005
:100A1600000000000000000008184884443F4044DD
:100A260058414E605847400000000000000000009A
:100A36000000000000000000100C2424A4642526F9
:100A46002424A42424140C0000000000000000004C
:100A56000000000000000000404048494949497F25
:100A66004949494B48404000000000000000000092
:100A76000000000000000000000202C2020202FEA6
:100A860082828282820200000000000000000000D4
:100A960000000000000000004040407F4040407FD2
:100AA6004040404040404000000000000000000080
:100AB6000000000000000000201808EAACA8A8AF5B
:100AC600A8A8ACEA082818000000000000000000F2
:100AD600000000000000000000003E02020202FFCB
:100AE600020212221E0000000000000000000000AA
:100AF600000000000000000080908C848484F5864D
:100B060084848484948C800000000000000000002F
:100B16000000000000000000008080844649281084
:100B2600102C2340800000000000000000000000A0
:100B3600000000000000000000FE0222DA0608089D
:100B4600F8898E88888808000000000000000000F0
:100B5600000000000000000000FF08100887403079
:100B66000F004080403F0000000000000000000031
:100B7600000000000000000000F80106000002026C
:100B86000202020202FE0000000000000000000057
:100B9600000000000000000000FF00000000000050
:100BA60000000040807F0000000000000000000000
:100BB60000000000000000000000FC04E4A4ACB546
:100BC600E604E42424A46400000000000000000001
:100BD600000000000000000080601F007F22160A4F
:100BE6003300FF0011221C0000000000000000007E
:100BF6000000000000000000008060F807080808F8
:100C060009FA0808080800000000000000000000BB
:100C16000000000000000000010000FF40414141CB
:100C2600417F4141414140000000000000000000BA
:100C36000000000000000000000000F80808090E8F
:100C460008080808F8000000000000000000000086
:100C560000000000000000000080601F010101018B
:100C66000101010103000000000000000000000077
:100C7600000000000000000080828282FE828282E4
:100C86008282FE8282828000000000000000000056
:100C96000000000000000000008040300F0000004F
:100CA6000000FF000000000000000000000000003F
:100CB600000000000000000020102CE7242400E2C1
:100CC6002C20BF2028E600000000000000000000E5
:100CD60000000000000000000101017F2111804F8B
:100CE60020100F10204F80000000000000000000C0
:100CF6000000000000000000000202C2020202FE24
:100D06008282828282020000000000000000000051
:100D160000000000000000004040407F4040407F4F
:100D260040404040404040000000000000000000FD
:100D36000000000000000000201808EAACA8A8AFD8
:100D4600A8A8ACEA0828180000000000000000006F
:100D5600000000000000000000003E02020202FF48
:100D6600020212221E000000000000000000000027
:080D7600000000000000000075
:1015E500EF4E60157D087C07ED1DAA0470011C4AAD
:0915F50070F6EF1F70EA1E80E79A
:0115FE0022CA
:10146200F583E5822CF582E43583F583E493FF7DF1
:011472000178
:10147300ED6004D2938002C293C292E4FEC296EF5F
:1014830030E704D2958002C295D296EF25E0FF0E95
:07149300BE08EAD292D293D9
:01149A00222F
:10000300AC07ED24B0FFE4FD121473EC54F0C454B8
:100013000F4410FF121473EC540F4401FF021473C6
:10169C00E4FD7F8D1214737F141214737FAF021448
:0116AC0073CA
:1016AD00E4FD7F8D1214737F101214737FAE02143C
:0116BD0073B9
:10157700E4FCEC24B0FFE4FD121473E4FF121473CF
:101587007F10121473E4FB7D01E4FF1214730BBB8D
:0615970080F50CBC08DC2D
:01159D00222B
:06118C00AA07A905AF034C
:10119200E4FCEF24E0FBEAD3947F4004E4FA09097B
:1011A200AF02AD01120003E4FC75F010EBA42CF5C4
:1011B20082E435F0F583E58224CEF582E5833402BC
:1011C20012146C0CBC08E2AF02E904FD120003E445
:1011D200FC75F010EBA42CF582E435F0F583E58282
:1011E20024D6F582E583340212146C0CBC08E22288
:041648008F1EA90543
:10164C007F017E00AD0119ED6009AD1E7C00120E0C
:03165C00DC80F13E
:01165F002268
:080026008F4E8D4F8A508B5163
:10002E00E4F556F554E554C39552505FC3E5529529
:10003E005414FD7F0A121648AC50AD51CFCDCFCE21
:10004E00CCCE120EEE7C007D0A120EEE8D55E556CC
:10005E007020E55214FFE554C39F5016E555700FFE
:10006E00E553C3138554F0A4254EFF7B20801375F2
:10007E005601E553C3138554F0A4254EFFE55524D0
:0B008E0030FBAD4F12118C0554809A1E
:010099002244
:0A1425008F3D8D3E8B3F8A408941C8
:10142F00E4F542AB3FAA40A9418542827583001281
:10143F000E8DFB601DAD3EAF3D12118C7408253D26
:10144F00F53DD394784007E4F53D053E053E054252
:02145F0080D13A
:011461002268
:04136800AA07A90522
:10136C00E4F53D120003E4FC75F040EBA424BEF55B
:10137C0082E5F03408121462053D0CBC10EAAF0291
:10138C00E904FD120003E4FC75F040EBA424DEF547
:0E139C0082E5F03408121462053D0CBC10EA24
:0113AA002220
:041256008F148B1650
:10125A00E4F51BF51CE5175407700BE51713131378
:10126A00541FF51D800AE517131313541F04F51DA7
:10127A008D1DE51DC395175034AD1DAF1412000323
:10128A00AC14ECC395165021AB18AA19A91A051C5F
:10129A00E51CAE1B7002051B14F5828E83120E8D9F
:0D12AA00FF7D011214730C80D9051D80C555
:0112B7002214
:10105000D2947F647E001215E5C2947F647E0012F4
:1010600015E5D294E4FD7FAE121473E4FF121473FD
:101070007F101214737F401214737F811214737FD8
:10108000CF1214737FA11214737FC81214737FA63A
:101090001214737FA81214737F3F1214737FD3123C
:1010A0001473E4FF1214737FD51214737F8012142B
:1010B000737FD91214737FF11214737FDA121473D1
:1010C0007F121214737FDB1214737F401214737F2C
:1010D000201214737F021214737F8D1214737F1405
:1010E0001214737FA41214737FA61214737FAF12AD
:1010F00014737FAF121473121577E4FDFF0200031F
:09163E00015C00015A00015B008F
:1016770053D1DFE4F5D375D2A643D18043AF4043BE
:03168700D18022ED
:0300A30002150043
:10150000C0E0C0D0055C055AE55CD3941440057575
:101510005C00B2C2E55AD394014009755A0020C458
:0915200003755B01D0D0D0E0326C
:03000000021100EA
:0C110000787FE4F6D8FD75815C02114791
:100D7E00E709F608DFFA8046E709F208DFFA803E57
:100D8E0088828C83E709F0A3DFFA8032E309F60844
:100D9E00DFFA8078E309F208DFFA807088828C83AC
:100DAE00E309F0A3DFFA806489828A83E0A3F60860
:100DBE00DFFA805889828A83E0A3F208DFFA804C3A
:100DCE0080D280FA80C680D4806980F28033801011
:100DDE0080A680EA809A80A880DA80E280CA80337A
:100DEE0089828A83ECFAE493A3C8C582C8CCC583F2
:100DFE00CCF0A3C8C582C8CCC583CCDFE9DEE780C2
:100E0E000D89828A83E493A3F608DFF9ECFAA9F040
:100E1E00EDFB2289828A83ECFAE0A3C8C582C8CC96
:100E2E00C583CCF0A3C8C582C8CCC583CCDFEADEAF
:100E3E00E880DB89828A83E493A3F208DFF980CC11
:100E4E0088F0EF60010E4E60C388F0ED2402B4040A
:100E5E000050B9F582EB2402B4040050AF232345B1
:060E6E008223900DCE73FB
:100E7400BB010689828A83E0225002E722BBFE027C
:090E8400E32289828A83E49322AF
:100E8D00BB010CE58229F582E5833AF583E022501A
:100E9D0006E92582F8E622BBFE06E92582F8E22264
:0D0EAD00E58229F582E5833AF583E493227E
:100EBA00F8BB010DE58229F582E5833AF583E8F06E
:100ECA00225006E92582C8F622BBFE05E92582C81A
:020EDA00F22202
:100EDC00EF8DF0A4A8F0CF8CF0A428CE8DF0A42E2A
:020EEC00FE22E4
:100EEE00BC000BBE0029EF8DF084FFADF022E4CCE8
:100EFE00F875F008EF2FFFEE33FEEC33FCEE9DECB1
:100F0E00984005FCEE9DFE0FD5F0E9E4CEFD22EDF6
:100F1E00F8F5F0EE8420D21CFEADF075F008EF2F40
:100F2E00FFED33FD4007985006D5F0F222C398FD31
:050F3E000FD5F0EA22CE
:10110C00020F43E493A3F8E493A34003F68001F2A7
:10111C0008DFF48029E493A3F85407240CC8C333E4
:10112C00C4540F4420C8834004F456800146F6DFB3
:10113C00E4800B0102040810204080901630E47EFD
:10114C00019360BCA3FF543F30E509541FFEE493A8
:10115C00A360010ECF54C025E060A840B8E493A36F
:10116C00FAE493A3F8E493A3C8C582C8CAC583CA9A
:10117C00F0A3C8C582C8CAC583CADFE9DEE780BE52
:0116470000A2
:00000001FF
