:1015D9001122334455000000000030303200373802
:1015E90000000000000000000000000000000000F2
:0215F9000000F0
:0E164600050E10101010200508010101010111
:1015B600E4FDFCC3ED9FEC9E50070DBD00010C80C1
:1015C600F2E4FCFDC3ED9FEC9E50070DBD00010C3F
:0215D60080F2A1
:0115D80022F0
:0B16E100EFD394004004001F80F622AD
:10132A007F641216E1C2B6D2B7C2B41213BA7B00F6
:10133A007A007908754E057F2A1213C57D017F212F
:10134A0012167C7D017F2212167C7D027F231216E3
:10135A007C7D287F2512167C7D207F3112167C7DAC
:0D136A00077F2612167C7D0F7F2002167C67
:1012D4007F641216E1C2B6D2B7C2B4D2B31213BA43
:1012E4007B007A007908754E057F2A1213C57D01AB
:1012F4007F2112167C7D017F2212167C7D1A7F24A9
:1013040012167C7D027F2312167CE4FD7F251216C3
:101314007C7D207F3112167C7D077F2612167C7D12
:061324000E7F2002167C82
:10161500E4FEEF3392B5EF25E0FFD2B4A2B2E43396
:081625004207C2B40EBE08EA40
:01162D00229A
:0C16D400C2B7121615E4FF121615D2B7AB
:0116E00022E7
:06167600C2B67D0F7F20CB
:10167C00C2B7121615AC07AF05121615D2B7AF04C8
:01168C00223B
:061510008B4B8A4C894D53
:10151600C2B7121615AD07E4FCECC3954E5017E49E
:10152600FF121615AB4BAA4CA94D8C82758300EFA2
:0A153600120EBA0C80E3D2B7AF0525
:011540002288
:0B13BA007A00790E7B00754E057F3035
:0613C5008B4B8A4C894DA0
:1013CB00C2B7121615AD07E4FCECC3954E5018AB23
:1013DB004B054DE54DAA4C7002054C14F9120E74D9
:0B13EB00FF1216150C80E2D2B7AF0510
:0113F60022D4
:0A16EC00121676D2B67F820216E1D4
:0A16F600121676D2B67FC80216E184
:0614AA007B007A007924AA
:0614B0008B3E8A3F8940DB
:1014B600E4FB7F071216D48F20300612C2B6AB3E6D
:1014C600AA3FA940754E207F611215107B01AD2001
:0714D6007F2712167CAF0313
:0114DD0022EC
:1014DE008B3E8A3F8940C2B67B007A00790E754EEC
:1014EE00057F2A1213C5AB3EAA3FA940754E207F39
:1014FE00A01213C57D0E7F2012167CD2B67F0A0273
:02150E0016E1E4
:1013F700E4F594F593F592F591F596F595F5B2F533
:10140700B1F5B4F5B3F5CAF5C9F5CCF5CBF5E2F509
:10141700E1E5A2543FF5A27598DA758E40E4F589A7
:0D142700758BE0758DFED28ED2ACD2AF2257
:10127700E4F53EF53F78407C00FD7BFF7A1579D990
:10128700FE7F05120E4E78457C007D007BFF7A15A8
:1012970079DE7E007F05120E4E7A0079401213BE6A
:1012A7007B007A007945754E057F10121510E545CC
:1012B700B41117E546B42212E547B4330DE548B437
:0C12C7004408E549B455037F01227F0272
:0112D30022F8
:100F430012132A1213F712168DD2AF121073121541
:100F53006A121277BF0107C2C3C2C002105FBF0289
:100F630007C2C2C2C202105FC2C3C2C2C2C2C2C0EF
:030F730002105F0A
:100F760078267C007D007BFF7A1579E37E007F046E
:100F8600120E4E782A7C007D007BFF7A1579E77E6B
:100F9600007F14120E4E12132A1216EC1214AAE433
:100FA600FBFDFF1213777B01E4FD7F121213777BA3
:100FB60002E4FD7F241213777B03E4FD7F361213D0
:100FC600777B04E4FD7F481213777B05E4FD7F5AA7
:100FD6001213777B06E4FD7F6C1213777B0D7D037E
:100FE600E4FF1213777B0E7D037F121213777B00CB
:100FF6007A0079267D037F24121434E55C6401703F
:1010060023F55CB2CD1212D41216F67B007A007963
:101016002A1214DE7DFF7F2712167C7F707E171240
:1010260015B6D2CD20B33C7B0F7D067F24121377F5
:101036007B107D067F361213771214AA7F587E0224
:101046001215B6E4F52274242522F8E6FF1216A03E
:101056000522E522C3940240ED7F707E171215B675
:0A106600020F767F3C7E001215B6E3
:03107000020F76F6
:0300230002162E94
:10162E00C0D0309809C298859980A29A92A230991A
:08163E0004C299C208D0D032A9
:1016A0002008FDEF30D004D29B8002C29BD208F507
:0216B00099227D
:101591008B588A59895AAB58AA59A95A120E7460A4
:1015A10013055AE55A7002055914F9120E74FF1207
:0515B10016A080E222FB
:1000A6000000000000000000002F00000000070014
:1000B600070000147F147F1400242A7F2A1200628E
:1000C600640813230036495522500000050300003A
:1000D60000001C224100000041221C000014083EC2
:1000E60008140008083E0808000000A06000000888
:1000F60008080808000060600000002010080402DC
:10010600003E5149453E0000427F40000042615199
:100116004946002141454B31001814127F10002733
:1001260045454539003C4A494930000171090503F6
:1001360000364949493600064949291E0000363627
:10014600000000005636000000081422410000148A
:100156001414141400004122140800020151090667
:1001660000324959513E007C1211127C007F4949E8
:100176004936003E41414122007F4141221C007F19
:1001860049494941007F09090901003E4149497A27
:10019600007F0808087F0000417F410000204041A1
:1001A6003F01007F08142241007F40404040007F0D
:1001B600020C027F007F0408107F003E4141413E51
:1001C600007F09090906003E4151215E007F091999
:1001D60029460046494949310001017F0101003F96
:1001E6004040403F001F2040201F003F4038403F16
:1001F600006314081463000708700807006151497A
:10020600454300007F41410000552A552A5500000C
:1002160041417F000004020102040040404040408A
:10022600000001020400002054545478007F484422
:10023600443800384444442000384444487F003859
:100246005454541800087E0901020018A4A4A47C82
:10025600007F080404780000447D4000004080844C
:100266007D00007F102844000000417F4000007C94
:1002760004180478007C08040478003844444438A0
:1002860000FC242424180018242418FC007C0804EC
:10029600040800485454542000043F444020003CC5
:1002A6004040207C001C2040201C003C4030403C4C
:1002B600004428102844001CA0A0A07C00446454DC
:1002C6004C44141414141414000000000000000020
:1002D6000000000000000000000000F80000000020
:1002E600000000333000000000100C06100C060061
:1002F600000000000000000040C07840C0784000C8
:10030600043F04043F040400007088FC0830000029
:10031600001820FF211E0000F008F000E018000081
:1003260000211C031E211E0000F00888700000003A
:100336001E2123241927211010160E00000000008C
:100346000000000000000000000000E018040200A9
:10035600000000071820400000020418E00000001A
:100366000040201807000000404080F08040400018
:100376000202010F01020200000000F0000000006E
:100386000101011F01010100000000000000000042
:1003960080B07000000000000000000000000000B7
:1003A6000001010101010101000000000000000040
:1003B60000303000000000000000000080601804DB
:1003C600006018060100000000E010080810E000B8
:1003D600000F102020100F00001010F80000000081
:1003E6000020203F202000000070080808887000C8
:1003F6000030282422213000003008888848300048
:100406000018202020110E000000C02010F8000067
:1004160000070424243F240000F808888808080000
:100426000019212020110E0000E010888818000015
:10043600000F112020110E0000380808C8380800E7
:100446000000003F00000000007088080888700067
:10045600001C222121221C0000E010080810E000E8
:100466000000312222110F00000000C0C000000071
:100476000000003030000000000000800000000096
:10048600000080600000000000008040201008008E
:100496000001020408102000404040404040400057
:1004A6000404040404040400000810204080000032
:1004B6000020100804020100007048080808F00037
:1004C6000000003036010000C030C828E810E00007
:1004D6000718272423140B000000C038E000000092
:1004E600203C23020227382008F8888888700000FC
:1004F600203F202020110E00C030080808083800D0
:10050600071820202010080008F808080810E00046
:10051600203F202020100F0008F88888E8081000E7
:10052600203F20202320180008F88888E8081000BB
:10053600203F200003000000C030080808380000F3
:1005460007182020221E020008F808000008F808F4
:10055600203F210101213F20000808F8080800007B
:100566000020203F2020000000000808F8080800AE
:10057600C08080807F00000008F888C02818080026
:10058600203F20012638200008F80800000000005F
:10059600203F20202020300008F8F800F8F8080056
:1005A600203F003F003F200008F830C00008F80850
:1005B600203F200007183F00E01008080810E00060
:1005C6000F10202020100F0008F808080808F00077
:1005D600203F210101010000E01008080810E0009A
:1005E6000F18242438504F0008F88888888870002F
:1005F600203F2000030C30200070880808083800CF
:100606000038202121221C00180808F808081800C4
:100616000000203F2000000008F808000008F80845
:10062600001F202020201F000878880000C83808F6
:10063600000007380E010000F80800F80008F8006E
:10064600033C0700073C0300081868808068180808
:1006560020302C03032C30200838C800C838080086
:100666000000203F2000000010080808C8380800D5
:100676002038262120201800000000FE0202020079
:100686000000007F40404000000C30C00000000029
:10069600000000010638C00000020202FE00000051
:1006A600004040407F0000000000040202020400F7
:1006B6000000000000000000000000000000000034
:1006C600808080808080808000020204000000001C
:1006D6000000000000000000000080808080000014
:1006E6000019242222223F2008F800808000000002
:1006F600003F112020110E000000008080800000C5
:10070600000E112020201100000000808088F800D3
:10071600000E112020103F20000080808080000005
:10072600001F222222221300008080F08888881869
:100736000020203F20200000000080808080800074
:10074600006B94949493600008F800808080000009
:10075600203F210000203F200080989800000000E4
:100766000020203F20200000000000809898000014
:1007760000C08080807F000008F800008080800034
:10078600203F24022D302000000808F80000000059
:100796000020203F20200000808080808080800014
:1007A600203F20003F20003F8080008080800000A6
:1007B600203F210000203F20000080808080000034
:1007C600001F202020201F00808000808000000065
:1007D60080FFA12020110E00000000808080800094
:1007E600000E112020A0FF80808080008080800085
:1007F60020203F21200001000000808080808000B2
:100806000033242424241900008080E08080000026
:100816000000001F20200000808000000080800073
:10082600001F202020103F208080800000808080D4
:1008360000010E3008060100808000800080808064
:100846000F300C030C300F00008080008080800089
:100856000020312E0E3120008080800000808080B4
:1008660080818E7018060100008080808080800064
:100876000021302C2221300000000000807C020282
:1008860000000000003F404000000000FF000000A4
:1008960000000000FF0000000002027C8000000053
:1008A6000040403F0000000000060101020204046F
:1008B600000000000000000000F80000FF402018C3
:1008C6000F18680808080800000000000000000073
:1008D6000000000000000000001F0000FF00007F75
:1008E60021213F21217F00000000000000000000C0
:1008F600000000000000000020202020202020FF13
:100906002020202020202000000000000000000001
:10091600000000000000000080804020100C030052
:10092600030C102040808000000000000000000042
:100936000000000000000000403C10FF10102010D6
:100946008F7808F808F8000000000000000000009A
:100956000000000000000000020602FF0101044240
:1009660021184681403F0000000000000000000002
:10097600000000000000000002FE9292FE0200103D
:100986001116F01413100000000000000000000013
:100996000000000000000000101F0808FF0481414D
:1009A600310D030D31418100000000000000000000
:1009B6000000000000000000100C0484146405060A
:1009C600F404040404140C000000000000000000FD
:1009D6000000000000000000048484444724140C36
:1009E600070C1424448404000000000000000000EA
:1009F600000000000000000002FA8282FE80402013
:100A0600504C434C50204000000000000000000005
:100A1600000000000000000008184884443F4044DD
:100A260058414E605847400000000000000000009A
:100A36000000000000000000100C2424A4642526F9
:100A46002424A42424140C0000000000000000004C
:100A56000000000000000000404048494949497F25
:100A66004949494B48404000000000000000000092
:100A76000000000000000000000202C2020202FEA6
:100A860082828282820200000000000000000000D4
:100A960000000000000000004040407F4040407FD2
:100AA6004040404040404000000000000000000080
:100AB6000000000000000000201808EAACA8A8AF5B
:100AC600A8A8ACEA082818000000000000000000F2
:100AD600000000000000000000003E02020202FFCB
:100AE600020212221E0000000000000000000000AA
:100AF600000000000000000080908C848484F5864D
:100B060084848484948C800000000000000000002F
:100B16000000000000000000008080844649281084
:100B2600102C2340800000000000000000000000A0
:100B3600000000000000000000FE0222DA0608089D
:100B4600F8898E88888808000000000000000000F0
:100B5600000000000000000000FF08100887403079
:100B66000F004080403F0000000000000000000031
:100B7600000000000000000000F80106000002026C
:100B86000202020202FE0000000000000000000057
:100B9600000000000000000000FF00000000000050
:100BA60000000040807F0000000000000000000000
:100BB60000000000000000000000FC04E4A4ACB546
:100BC600E604E42424A46400000000000000000001
:100BD600000000000000000080601F007F22160A4F
:100BE6003300FF0011221C0000000000000000007E
:100BF6000000000000000000008060F807080808F8
:100C060009FA0808080800000000000000000000BB
:100C16000000000000000000010000FF40414141CB
:100C2600417F4141414140000000000000000000BA
:100C36000000000000000000000000F80808090E8F
:100C460008080808F8000000000000000000000086
:100C560000000000000000000080601F010101018B
:100C66000101010103000000000000000000000077
:100C7600000000000000000080828282FE828282E4
:100C86008282FE8282828000000000000000000056
:100C96000000000000000000008040300F0000004F
:100CA6000000FF000000000000000000000000003F
:100CB600000000000000000020102CE7242400E2C1
:100CC6002C20BF2028E600000000000000000000E5
:100CD60000000000000000000101017F2111804F8B
:100CE60020100F10204F80000000000000000000C0
:100CF6000000000000000000000202C2020202FE24
:100D06008282828282020000000000000000000051
:100D160000000000000000004040407F4040407F4F
:100D260040404040404040000000000000000000FD
:100D36000000000000000000201808EAACA8A8AFD8
:100D4600A8A8ACEA0828180000000000000000006F
:100D5600000000000000000000003E02020202FF48
:100D6600020212221E000000000000000000000027
:080D7600000000000000000075
:1015FB00EF4E60157D087C07ED1DAA0470011C4A97
:09160B0070F6EF1F70EA1E80E783
:0116140022B3
:10147100F583E5822CF582E43583F583E493FF7DE2
:011481000169
:10148200ED6004D2938002C293C292E4FEC296EF50
:1014920030E704D2958002C295D296EF25E0FF0E86
:0714A200BE08EAD292D293CA
:0114A9002220
:10000300AC07ED24B0FFE4FD121482EC54F0C454A9
:100013000F4410FF121482EC540F4401FF021482A8
:1016B200E4FD7F8D1214827F141214827FAF021414
:0116C20082A5
:1016C300E4FD7F8D1214827F101214827FAE021408
:0116D3008294
:10156A00E4FCEC24B0FFE4FD121482E4FF121482BE
:10157A007F10121482E4FB7D01E4FF1214820BBB7C
:06158A0080F50CBC08DC3A
:011590002238
:0611AF00AA07A905AF0329
:1011B500E4FCEF24E0FBEAD3947F4004E4FA090958
:1011C500AF02AD01120003E4FC75F010EBA42CF5A1
:1011D50082E435F0F583E58224CEF582E583340299
:1011E50012147B0CBC08E2AF02E904FD120003E413
:1011F500FC75F010EBA42CF582E435F0F583E5825F
:1012050024D6F582E583340212147B0CBC08E22255
:04165E008F1EA9052D
:101662007F017E00AD0119ED6009AD1E7C00120EF6
:03167200DC80F128
:011675002252
:080026008F4F8D508A518B525F
:10002E00E4F557F555E555C39553505FC3E5539524
:10003E005514FD7F0A12165EAC51AD52CFCDCFCE08
:10004E00CCCE120EEE7C007D0A120EEE8D56E557CA
:10005E007020E55314FFE555C39F5016E556700FFB
:10006E00E554C3138555F0A4254FFF7B20801375EF
:10007E005701E554C3138555F0A4254FFFE55624CB
:0B008E0030FBAD501211AF0555809AF9
:010099002244
:0A1434008F3E8D3F8B408A418942B4
:10143E00E4F543AB40AA41A942854382758300126D
:10144E000E8DFB601DAD3FAF3E1211AF7408253EF1
:10145E00F53ED394784007E4F53E053F053F05433E
:02146E0080D12B
:011470002259
:04137700AA07A90513
:10137B00E4F53E120003E4FC75F040EBA424BEF54B
:10138B0082E5F03408121471053E0CBC10EAAF0272
:10139B00E904FD120003E4FC75F040EBA424DEF538
:0E13AB0082E5F03408121471053E0CBC10EA05
:0113B9002211
:041215008F148B1691
:10121900E4F51BF51CE5175407700BE517131313B9
:10122900541FF51D800AE517131313541F04F51DE8
:101239008D1DE51DC395175034AD1DAF1412000364
:10124900AC14ECC395165021AB18AA19A91A051CA0
:10125900E51CAE1B7002051B14F5828E83120E8DE0
:0D126900FF7D011214820C80D9051D80C587
:011276002255
:10107300D2947F647E001215FBC2947F647E0012BB
:1010830015FBD294E4FD7FAE121482E4FF121482A6
:101093007F101214827F401214827F811214827F88
:1010A300CF1214827FA11214827FC81214827FA6EA
:1010B3001214827FA81214827F3F1214827FD312EC
:1010C3001482E4FF1214827FD51214827F801214DB
:1010D300827FD91214827FF11214827FDA12148272
:1010E3007F121214827FDB1214827F401214827FDC
:1010F300201214827F021214827F8D1214827F14B5
:101103001214827FA41214827FA61214827FAF125C
:1011130014827FAF12148212156AE4FDFF020003EA
:09165400015D00015B00015C0076
:10168D0053D1DFE4F5D375D2A643D18043AF4043A8
:03169D00D18022D7
:0300A30002154102
:10154100C0E0C0D0055D055BE55DD3941440057531
:101551005D00B2C2E55BD394014009755B0020C414
:0915610003755C01D0D0D0E0322A
:03000000021123C7
:0C112300787FE4F6D8FD75815D02116A4A
:100D7E00E709F608DFFA8046E709F208DFFA803E57
:100D8E0088828C83E709F0A3DFFA8032E309F60844
:100D9E00DFFA8078E309F208DFFA807088828C83AC
:100DAE00E309F0A3DFFA806489828A83E0A3F60860
:100DBE00DFFA805889828A83E0A3F208DFFA804C3A
:100DCE0080D280FA80C680D4806980F28033801011
:100DDE0080A680EA809A80A880DA80E280CA80337A
:100DEE0089828A83ECFAE493A3C8C582C8CCC583F2
:100DFE00CCF0A3C8C582C8CCC583CCDFE9DEE780C2
:100E0E000D89828A83E493A3F608DFF9ECFAA9F040
:100E1E00EDFB2289828A83ECFAE0A3C8C582C8CC96
:100E2E00C583CCF0A3C8C582C8CCC583CCDFEADEAF
:100E3E00E880DB89828A83E493A3F208DFF980CC11
:100E4E0088F0EF60010E4E60C388F0ED2402B4040A
:100E5E000050B9F582EB2402B4040050AF232345B1
:060E6E008223900DCE73FB
:100E7400BB010689828A83E0225002E722BBFE027C
:090E8400E32289828A83E49322AF
:100E8D00BB010CE58229F582E5833AF583E022501A
:100E9D0006E92582F8E622BBFE06E92582F8E22264
:0D0EAD00E58229F582E5833AF583E493227E
:100EBA00F8BB010DE58229F582E5833AF583E8F06E
:100ECA00225006E92582C8F622BBFE05E92582C81A
:020EDA00F22202
:100EDC00EF8DF0A4A8F0CF8CF0A428CE8DF0A42E2A
:020EEC00FE22E4
:100EEE00BC000BBE0029EF8DF084FFADF022E4CCE8
:100EFE00F875F008EF2FFFEE33FEEC33FCEE9DECB1
:100F0E00984005FCEE9DFE0FD5F0E9E4CEFD22EDF6
:100F1E00F8F5F0EE8420D21CFEADF075F008EF2F40
:100F2E00FFED33FD4007985006D5F0F222C398FD31
:050F3E000FD5F0EA22CE
:10112F00020F43E493A3F8E493A34003F68001F284
:10113F0008DFF48029E493A3F85407240CC8C333C1
:10114F00C4540F4420C8834004F456800146F6DF90
:10115F00E4800B0102040810204080901646E47EC4
:10116F00019360BCA3FF543F30E509541FFEE49385
:10117F00A360010ECF54C025E060A840B8E493A34C
:10118F00FAE493A3F8E493A3C8C582C8CAC583CA77
:10119F00F0A3C8C582C8CAC583CADFE9DEE780BE2F
:01165D00008C
:00000001FF
