:10160B006E0066006F6E32330011223344550000BA
:10161B0000000030303100363600000000000000C2
:10162B000000000000000000000000373700000041
:0F163B00000000000000000000000000000000A0
:1018EC00050E01010101010509101010101005145D
:0518FC00101010102087
:0B18BE007DFF7F27121A407F707E170D
:1018C900E4FDFCC3ED9FEC9E50070DBD00010C80AB
:1018D900F2E4FCFDC3ED9FEC9E50070DBD00010C29
:0218E90080F28B
:0118EB0022DA
:0B1AE800EFD394004004001F80F622A2
:10164A001215807B007A0079097563057F2A1215C5
:10165A0096121A3C7D017F22121A407D027F2312C4
:10166A001A40E4FD7F25121A407D207F31121A406C
:0E167A007D077F26121A407D0F7F20021A4046
:101688001215807B007A0079097563057F2A121587
:1016980096121A3C7D017F22121A407D027F231286
:1016A8001A407D287F25121A407D207F31121A406A
:0E16B8007D077F26121A407D0F7F20021A4008
:100046007F64121AE8C2B6D2B7C2B4D2B37A0079C4
:100056000912158F7B007A00790E7563057F2A12C7
:100066001596121A3C7D017F22121A407D1A7F24B2
:10007600121A407D027F23121A40E4FD7F25121AD0
:10008600407D207F31121A407D077F26121A407D5F
:060096000E7F20021A405B
:10152E007F64121AE8C2B6D2B7C2B4D2B312158B08
:10153E007B007A0079147563057F2A121596121AAC
:10154E003C7D017F22121A407D1A7F24121A407DA3
:10155E00027F23121A407D287F25121A407D207F9C
:10156E0031121A407D077F26121A407D0E7F20020F
:02157E001A4011
:1019DD00E4FEEF3392B5EF25E0FFD2B4A2B2E433CB
:0819ED004207C2B40EBE08EA75
:0119F50022CF
:0C1ADB00C2B71219DDE4FF1219DDD2B70A
:011AE70022DC
:041A3C007D017F2188
:101A4000C2B71219DDAC07AF051219DDD2B7AF046A
:011A50002273
:06188D008B608A61896294
:10189300C2B71219DDAD07E4FCECC395635017E43E
:1018A300FF1219DDAB60AA61A9628C82758300EF18
:0A18B30012114C0C80E3D2B7AF0510
:0118BD002208
:101580007F64121AE8C2B6D2B7C2B47A00790E7B71
:06159000007563057F30C9
:061596008B608A6189628E
:10159C00C2B71219DDAD07E4FCECC395635018AB70
:1015AC00600562E562AA617002056114F912110608
:0B15BC00FF1219DD0C80E2D2B7AF0572
:0115C7002201
:101AAC00C2B67D0F7F20121A40D2B67F82021AE88E
:101ABC00C2B67D0F7F20121A40D2B67FC8021AE838
:0617F2007B007A0079275C
:0617F8008B538A54895551
:1017FE00E4FB7F07121ADB8F20300615C2B6AB53FF
:10180E00AA54A9557563207F6112188D7B01750846
:0A181E0001AD207F27121A40AF032E
:01182800229D
:101829008B538A548955C2B67B007A00790975634E
:10183900057F2A121596AB53AA54A9557563207FC3
:10184900A01215967D0E7F20121A40D2B67F0A0289
:021859001AE88B
:10185B008B538A548955C2B67B007A00790E756317
:10186B00057F2A121596AB53AA54A9557563207F91
:10187B00A01215967D0E7F20121A40D2B67F0A0257
:02188B001AE859
:1016C600759401E4F593F592F591F596F595F5B2D5
:1016D600F5B1F5B4F5B3F5CAF5C9F5CCF5CBF5E238
:1016E600F5E1E5A2543FF5A27598DA758E40E4F56A
:0E16F60089758BE0758DFED28ED2ACD2AF22FC
:1014CF00E4F553F55478557C00FD7BFF7A167914BB
:1014DF00FE7F051210E0785A7C007D007BFF7A16A4
:1014EF0079197E007F051210E07B007A0079551282
:1014FF0015917B007A00795A7563057F1012188D4C
:10150F00E55AB41117E55BB42212E55CB4330DE56F
:0E151F005DB44408E55EB455037F01227F02EF
:01152D00229B
:100E1E0078227C007D007BFF7A16791E7E007F048F
:100E2E001210E012164A1216881216C67F021219F6
:100E3E0014121A65D2AF1211D512193C1214CFBF6B
:100E4E000106C2C3C2C08011BF0206C2C2C2C280A6
:0C0E5E0008C2C3C2C2C2C2C2C01218C582
:100E6A00782B7C007D007BFF7A1679227E007F1426
:100E7A001210E0783F7C007D007BFF7A1679367E7F
:100E8A00007F141210E0D28412164A121AAC1217FA
:100E9A00F2E4FBFDFF1215C87B01E4FD7F12121577
:100EAA00C87B02E4FD7F241215C87B03E4FD7F366C
:100EBA001215C87B04E4FD7F481215C87B05E4FDC2
:100ECA007F5A1215C87B06E4FD7F6C1215C87B0990
:100EDA007D03E4FF1215C87B0A7D037F121215C831
:100EEA007B0B7D037F241215C87B0C7D037F361292
:100EFA0015C87B007A0079227D037F48121704E522
:100F0A0077B40112E4F577121688121AAC7B007ACC
:100F1A000079291217F8E57A6401701AF57AF5084A
:100F2A00B2CD120046121ABC7B007A00792B121835
:100F3A00291218BED2CDE57B6401701E121688E410
:100F4A00F57BF508B2CD12152E121ABC7B007A0079
:100F5A00793F12185B1218BED2CD20B331E508B41E
:100F6A000106751901E4F5081217F27F587E02127C
:100F7A0018C9E4F52674272526F8E6FF121A78051B
:100F8A0026E526C3940240ED7F607EEA80047F3C1A
:100F9A007E001218C97556FF75571675580B7B01D6
:100FAA007A007900121311E94A4B70177556FF75CA
:100FBA00571675580D7B017A007900121311E94A08
:100FCA004B60167519017B017A0079001219637F4B
:100FDA003C7E001218C9121988E5196401600302DF
:100FEA000E6AF519B2CDC2847BFF7A16790F121AEE
:100FFA00267F607EEA1218C91218C91218C9121877
:03100A00C9D2CD7B
:03100D00020E6A66
:030023000219F6C9
:1019F600C0D0309809C298859980A29A92A230994F
:081A060004C299C208D0D032DD
:101A78002008FDEF30D004D29B8002C29BD208F52B
:021A88009922A1
:101963008B538A548955AB53AA54A9551211066057
:10197300130555E5557002055414F9121106FF12AB
:051983001A7880E22249
:1000A6000000000000000000002F00000000070014
:1000B600070000147F147F1400242A7F2A1200628E
:1000C600640813230036495522500000050300003A
:1000D60000001C224100000041221C000014083EC2
:1000E60008140008083E0808000000A06000000888
:1000F60008080808000060600000002010080402DC
:10010600003E5149453E0000427F40000042615199
:100116004946002141454B31001814127F10002733
:1001260045454539003C4A494930000171090503F6
:1001360000364949493600064949291E0000363627
:10014600000000005636000000081422410000148A
:100156001414141400004122140800020151090667
:1001660000324959513E007C1211127C007F4949E8
:100176004936003E41414122007F4141221C007F19
:1001860049494941007F09090901003E4149497A27
:10019600007F0808087F0000417F410000204041A1
:1001A6003F01007F08142241007F40404040007F0D
:1001B600020C027F007F0408107F003E4141413E51
:1001C600007F09090906003E4151215E007F091999
:1001D60029460046494949310001017F0101003F96
:1001E6004040403F001F2040201F003F4038403F16
:1001F600006314081463000708700807006151497A
:10020600454300007F41410000552A552A5500000C
:1002160041417F000004020102040040404040408A
:10022600000001020400002054545478007F484422
:10023600443800384444442000384444487F003859
:100246005454541800087E0901020018A4A4A47C82
:10025600007F080404780000447D4000004080844C
:100266007D00007F102844000000417F4000007C94
:1002760004180478007C08040478003844444438A0
:1002860000FC242424180018242418FC007C0804EC
:10029600040800485454542000043F444020003CC5
:1002A6004040207C001C2040201C003C4030403C4C
:1002B600004428102844001CA0A0A07C00446454DC
:1002C6004C44141414141414000000000000000020
:1002D6000000000000000000000000F80000000020
:1002E600000000333000000000100C06100C060061
:1002F600000000000000000040C07840C0784000C8
:10030600043F04043F040400007088FC0830000029
:10031600001820FF211E0000F008F000E018000081
:1003260000211C031E211E0000F00888700000003A
:100336001E2123241927211010160E00000000008C
:100346000000000000000000000000E018040200A9
:10035600000000071820400000020418E00000001A
:100366000040201807000000404080F08040400018
:100376000202010F01020200000000F0000000006E
:100386000101011F01010100000000000000000042
:1003960080B07000000000000000000000000000B7
:1003A6000001010101010101000000000000000040
:1003B60000303000000000000000000080601804DB
:1003C600006018060100000000E010080810E000B8
:1003D600000F102020100F00001010F80000000081
:1003E6000020203F202000000070080808887000C8
:1003F6000030282422213000003008888848300048
:100406000018202020110E000000C02010F8000067
:1004160000070424243F240000F808888808080000
:100426000019212020110E0000E010888818000015
:10043600000F112020110E0000380808C8380800E7
:100446000000003F00000000007088080888700067
:10045600001C222121221C0000E010080810E000E8
:100466000000312222110F00000000C0C000000071
:100476000000003030000000000000800000000096
:10048600000080600000000000008040201008008E
:100496000001020408102000404040404040400057
:1004A6000404040404040400000810204080000032
:1004B6000020100804020100007048080808F00037
:1004C6000000003036010000C030C828E810E00007
:1004D6000718272423140B000000C038E000000092
:1004E600203C23020227382008F8888888700000FC
:1004F600203F202020110E00C030080808083800D0
:10050600071820202010080008F808080810E00046
:10051600203F202020100F0008F88888E8081000E7
:10052600203F20202320180008F88888E8081000BB
:10053600203F200003000000C030080808380000F3
:1005460007182020221E020008F808000008F808F4
:10055600203F210101213F20000808F8080800007B
:100566000020203F2020000000000808F8080800AE
:10057600C08080807F00000008F888C02818080026
:10058600203F20012638200008F80800000000005F
:10059600203F20202020300008F8F800F8F8080056
:1005A600203F003F003F200008F830C00008F80850
:1005B600203F200007183F00E01008080810E00060
:1005C6000F10202020100F0008F808080808F00077
:1005D600203F210101010000E01008080810E0009A
:1005E6000F18242438504F0008F88888888870002F
:1005F600203F2000030C30200070880808083800CF
:100606000038202121221C00180808F808081800C4
:100616000000203F2000000008F808000008F80845
:10062600001F202020201F000878880000C83808F6
:10063600000007380E010000F80800F80008F8006E
:10064600033C0700073C0300081868808068180808
:1006560020302C03032C30200838C800C838080086
:100666000000203F2000000010080808C8380800D5
:100676002038262120201800000000FE0202020079
:100686000000007F40404000000C30C00000000029
:10069600000000010638C00000020202FE00000051
:1006A600004040407F0000000000040202020400F7
:1006B6000000000000000000000000000000000034
:1006C600808080808080808000020204000000001C
:1006D6000000000000000000000080808080000014
:1006E6000019242222223F2008F800808000000002
:1006F600003F112020110E000000008080800000C5
:10070600000E112020201100000000808088F800D3
:10071600000E112020103F20000080808080000005
:10072600001F222222221300008080F08888881869
:100736000020203F20200000000080808080800074
:10074600006B94949493600008F800808080000009
:10075600203F210000203F200080989800000000E4
:100766000020203F20200000000000809898000014
:1007760000C08080807F000008F800008080800034
:10078600203F24022D302000000808F80000000059
:100796000020203F20200000808080808080800014
:1007A600203F20003F20003F8080008080800000A6
:1007B600203F210000203F20000080808080000034
:1007C600001F202020201F00808000808000000065
:1007D60080FFA12020110E00000000808080800094
:1007E600000E112020A0FF80808080008080800085
:1007F60020203F21200001000000808080808000B2
:100806000033242424241900008080E08080000026
:100816000000001F20200000808000000080800073
:10082600001F202020103F208080800000808080D4
:1008360000010E3008060100808000800080808064
:100846000F300C030C300F00008080008080800089
:100856000020312E0E3120008080800000808080B4
:1008660080818E7018060100008080808080800064
:100876000021302C2221300000000000807C020282
:1008860000000000003F404000000000FF000000A4
:1008960000000000FF0000000002027C8000000053
:1008A6000040403F0000000000060101020204046F
:1008B600000000000000000000F80000FF402018C3
:1008C6000F18680808080800000000000000000073
:1008D6000000000000000000001F0000FF00007F75
:1008E60021213F21217F00000000000000000000C0
:1008F600000000000000000020202020202020FF13
:100906002020202020202000000000000000000001
:10091600000000000000000080804020100C030052
:10092600030C102040808000000000000000000042
:100936000000000000000000403C10FF10102010D6
:100946008F7808F808F8000000000000000000009A
:100956000000000000000000020602FF0101044240
:1009660021184681403F0000000000000000000002
:10097600000000000000000002FE9292FE0200103D
:100986001116F01413100000000000000000000013
:100996000000000000000000101F0808FF0481414D
:1009A600310D030D31418100000000000000000000
:1009B6000000000000000000100C0484146405060A
:1009C600F404040404140C000000000000000000FD
:1009D6000000000000000000048484444724140C36
:1009E600070C1424448404000000000000000000EA
:1009F600000000000000000002FA8282FE80402013
:100A0600504C434C50204000000000000000000005
:100A1600000000000000000008184884443F4044DD
:100A260058414E605847400000000000000000009A
:100A36000000000000000000100C2424A4642526F9
:100A46002424A42424140C0000000000000000004C
:100A56000000000000000000404048494949497F25
:100A66004949494B48404000000000000000000092
:100A7600000000000000000000FE0222222222A246
:100A8600FA22222202FE0000000000000000000000
:100A9600000000000000000000FF40484442516092
:100AA6005F40404040FF00000000000000000000E2
:100AB60000000000000000002030AC632018084849
:100AC60048487F4848480800000000000000000031
:100AD600000000000000000022672212121200FE31
:100AE6004242424242FE00000000000000000000B8
:100AF600000000000000000080908C848484F5864D
:100B060084848484948C800000000000000000002F
:100B16000000000000000000008080844649281084
:100B2600102C2340800000000000000000000000A0
:100B3600000000000000000000FE0222DA0608089D
:100B4600F8898E88888808000000000000000000F0
:100B5600000000000000000000FF08100887403079
:100B66000F004080403F0000000000000000000031
:100B7600000000000000000000F80106000002026C
:100B86000202020202FE0000000000000000000057
:100B9600000000000000000000FF00000000000050
:100BA60000000040807F0000000000000000000000
:100BB60000000000000000000000FC04E4A4ACB546
:100BC600E604E42424A46400000000000000000001
:100BD600000000000000000080601F007F22160A4F
:100BE6003300FF0011221C0000000000000000007E
:100BF6000000000000000000008060F807080808F8
:100C060009FA0808080800000000000000000000BB
:100C16000000000000000000010000FF40414141CB
:100C2600417F4141414140000000000000000000BA
:100C36000000000000000000000000F80808090E8F
:100C460008080808F8000000000000000000000086
:100C560000000000000000000080601F010101018B
:100C66000101010103000000000000000000000077
:100C7600000000000000000080828282FE828282E4
:100C86008282FE8282828000000000000000000056
:100C96000000000000000000008040300F0000004F
:100CA6000000FF000000000000000000000000003F
:100CB600000000000000000020102CE7242400E2C1
:100CC6002C20BF2028E600000000000000000000E5
:100CD60000000000000000000101017F2111804F8B
:100CE60020100F10204F80000000000000000000C0
:100CF60000000000000000000000E2828282828282
:100D0600828282FE00000000000000000000000059
:100D1600000000000000000000003F40404040404E
:100D26004040404040780000000000000000000005
:100D360000000000000000000000000000000000AD
:100D4600000000000000000000000000000000009D
:100D56000000000000000000000036360000000021
:100D6600000000000000000000000000000000007D
:100D76000000000000000000060909E6F80C040265
:100D860002020202041E0000000000000000000033
:100D96000000000000000000000000071F30204097
:100DA600404040402010000000000000000000000D
:100DB6000000000000000000F008F080601800004D
:100DC60000310C031E211E00000000000000000080
:100DD600000000000000000008F88888888870007D
:100DE600203F2000030C302000000000000000001F
:100DF600000000000000000008F808000008F808DD
:100E0600203F210101213F200000000000000000DA
:080E16000000000000000000D4
:10002600EF4E60157D087C07ED1DAA0470011C4A81
:0900360070F6EF1F70EA1E80E76E
:01003F00229E
:1017B900F583E5822CF582E43583F583E493FF7D97
:0117C900011E
:1017CA00ED6004D2938002C293C292E4FEC296EF05
:1017DA0030E704D2958002C295D296EF25E0FF0E3B
:0717EA00BE08EAD292D2937F
:0117F10022D5
:10000300AC07ED24B0FFE4FD1217CAEC54F0C4545E
:100013000F4410FF1217CAEC540F4401FF0217CA12
:101A8A00E4FD7F8D1217CA7F141217CA7FAF02179F
:011A9A00CA81
:101A9B00E4FD7F8D1217CA7F101217CA7FAE021793
:011AAB00CA70
:10193C00E4FCEC24B0FFE4FD1217CAE4FF1217CA52
:10194C007F101217CAE4FB7D01E4FF1217CA0BBB10
:06195C0080F50CBC08DC64
:011962002262
:06140700AA07A905AF03CE
:10140D00E4FCEF24E0FBEAD3947F4004E4FA0909FD
:10141D00AF02AD01120003E4FC75F010EBA42CF546
:10142D0082E435F0F583E58224CEF582E58334023E
:10143D001217C30CBC08E2AF02E904FD120003E46D
:10144D00FC75F010EBA42CF582E435F0F583E58204
:10145D0024D6F582E58334021217C30CBC08E222B0
:041A0E008F1DA9057A
:101A12007F017E00AD0119ED6009AD1D7C00121140
:031A22006E80F1E2
:011A2500229E
:081393008F6E8D6F8A708B7163
:10139B00E4F576F574E574C39572505FC3E5729509
:1013AB007414FD7F0A121A0EAC70AD71CFCDCFCE77
:1013BB00CCCE1211807C007D0A1211808D75E576E2
:1013CB007020E57214FFE574C39F5016E575700F1E
:1013DB00E573C3138574F0A4256EFF7B2080137512
:1013EB007601E573C3138574F0A4256EFFE57524B0
:0B13FB0030FBAD6F1214070574809AE0
:0114060022C3
:0A1704008F538D548B558A56895778
:10170E00E4F558AB55AA56A9578558827583001231
:10171E00111FFB601DAD54AF5312140774082553EF
:10172E00F553D394784007E4F55305540554055802
:02173E0080D158
:011740002286
:0415C800AA07A905C0
:1015CC00E4F553120003E4FC75F040EBA424BEF5E3
:1015DC0082E5F034081217B905530CBC10EAAF02BF
:1015EC00E904FD120003E4FC75F040EBA424DEF5E5
:0E15FC0082E5F034081217B905530CBC10EA52
:01160A0022BD
:04146D008F648B6697
:10147100E4F56BF56CE5675407700BE5671313131F
:10148100541FF56D800AE567131313541F04F56D9E
:101491008D6DE56DC395675034AD6DAF641200037A
:1014A100AC64ECC395665021AB68AA69A96A056C66
:1014B100E56CAE6B7002056B14F5828E8312111F01
:0D14C100FF7D011217CA0C80D9056D80C592
:0114CE0022FB
:1011D500D2947F647E00120026C2947F647E001242
:1011E5000026D294E4FD7FAE1217CAE4FF1217CA97
:1011F5007F101217CA7F401217CA7F811217CA7F44
:10120500CF1217CA7FA11217CA7FC81217CA7FA6A5
:101215001217CA7FA81217CA7F3F1217CA7FD312A7
:1012250017CAE4FF1217CA7FD51217CA7F80121793
:10123500CA7FD91217CA7FF11217CA7FDA1217CAE5
:101245007F121217CA7FDB1217CA7F401217CA7F97
:10125500201217CA7F021217CA7F8D1217CA7F1470
:101265001217CA7FA41217CA7FA61217CA7FAF1218
:1012750017CA7FAF1217CA12193CE4FDFF0200031B
:10190100017C00017800017900017A00017B00016E
:0219110077005D
:101A650053D1DFE4F5D375D2A643D18043AF4043CC
:031A7500D18022FB
:0300A30002177EC3
:10177E00C0E0C0D0057C05780579E57CD394144093
:10178E0005757C00B2C2E578D39401400F757800E0
:10179E0020C403757A0120C503757B01E579C394D6
:0B17AE00014003757701D0D0D0E0327D
:101A5100EFD39400400D00007E167D80DDFEDEFC9C
:031A61001F80EDF6
:011A6400225F
:05009C00007F19DFFEEA
:0100A100223C
:0E1ACC0000007F2B7E067DCBDDFEDEFCDFFA08
:011ADA0022E9
:1019A900AB07AA06D3EB9400EA64809480400A123C
:0A19B9001ACCEB1B70EE1A80EB2233
:1019C300AD07AC06538EEF538EF7438E048CD6AF20
:0A19D300058FD753AFFB438E10229F
:10191400BF02077FE87EFF1219C3539A7F43AF01CA
:10192400439A1053BAFE7F04900000E4F0A3DFFC56
:07193400C209E4F51BF51CDC
:01193B002289
:101A26001211066010D209F59B2009FD740129F9EF
:061A3600E43AFA80EB2205
:0300430002174160
:10174100C0E0C083C082C0D0E59A30E01D539AFE4C
:101751007400251CF582E43400F583E59BF0051C3B
:10176100E51CC394044003751C00E59A30E1055360
:0D1771009AFDC209D0D0D082D083D0E032E2
:10198800E4FFFE74002FF58274003EF583E4F0F561
:101998001BF51CC2090FBF00010EEF64044E70E373
:0119A800221C
:0300000002128564
:0C128500787FE4F6D8FD75817C0212CC65
:10101000E709F608DFFA8046E709F208DFFA803EC2
:1010200088828C83E709F0A3DFFA8032E309F608AF
:10103000DFFA8078E309F208DFFA807088828C8317
:10104000E309F0A3DFFA806489828A83E0A3F608CB
:10105000DFFA805889828A83E0A3F208DFFA804CA5
:1010600080D280FA80C680D4806980F2803380107C
:1010700080A680EA809A80A880DA80E280CA8033E5
:1010800089828A83ECFAE493A3C8C582C8CCC5835D
:10109000CCF0A3C8C582C8CCC583CCDFE9DEE7802D
:1010A0000D89828A83E493A3F608DFF9ECFAA9F0AC
:1010B000EDFB2289828A83ECFAE0A3C8C582C8CC02
:1010C000C583CCF0A3C8C582C8CCC583CCDFEADE1B
:1010D000E880DB89828A83E493A3F208DFF980CC7D
:1010E00088F0EF60010E4E60C388F0ED2402B40476
:1010F0000050B9F582EB2402B4040050AF2323451D
:06110000822390106073D1
:10110600BB010689828A83E0225002E722BBFE02E7
:09111600E32289828A83E493221A
:10111F00BB010CE58229F582E5833AF583E0225085
:10112F0006E92582F8E622BBFE06E92582F8E222CF
:0D113F00E58229F582E5833AF583E49322E9
:10114C00F8BB010DE58229F582E5833AF583E8F0D9
:10115C00225006E92582C8F622BBFE05E92582C885
:02116C00F2226D
:10116E00EF8DF0A4A8F0CF8CF0A428CE8DF0A42E95
:02117E00FE224F
:10118000BC000BBE0029EF8DF084FFADF022E4CC53
:10119000F875F008EF2FFFEE33FEEC33FCEE9DEC1C
:1011A000984005FCEE9DFE0FD5F0E9E4CEFD22ED62
:1011B000F8F5F0EE8420D21CFEADF075F008EF2FAC
:1011C000FFED33FD4007985006D5F0F222C398FD9D
:0511D0000FD5F0EA223A
:101311008B538A548955AB56AA57A95812110660A6
:1013210063AB53AA54A955121106605F85565985BE
:10133100575A85585B8B5C8A5D895EAB59AA5AA95D
:101341005B121106FF6023AB5CAA5DA95E12110658
:101351006F701704255BF55BE4355AF55A74012566
:101361005EF55EE4355DF55D80D1AB59AA5AA95BA6
:101371001211067002800D74012555F555E435549E
:10138100F554809DAB53AA54A955227B007A00796C
:02139100002238
:10129100020E1EE493A3F8E493A34003F68001F247
:1012A10008DFF48029E493A3F85407240CC8C3335E
:1012B100C4540F4420C8834004F456800146F6DF2D
:1012C100E4800B01020408102040809018ECE47EB9
:1012D100019360BCA3FF543F30E509541FFEE49322
:1012E100A360010ECF54C025E060A840B8E493A3E9
:1012F100FAE493A3F8E493A3C8C582C8CAC583CA14
:10130100F0A3C8C582C8CAC583CADFE9DEE780BECB
:0119130000D3
:00000001FF
